:100000008DC19FC1DDC19DC19CC19BC19AC199C1D8
:1000100098C197C196C195C194C193C192C100FF87
:100020000000F80000F10000EB0000E40000DE003A
:1000300000D70100D10100CB0100C50100BF0200C3
:10004000B90200B40300AE0300A90400A305009E9A
:1000500005009906009407008F08008A0900850AA8
:1000600000800B007B0D00770E00720F006E1100F8
:100070006A12006614006215005E17005A190056D5
:100080001B00521D004F1F004B2100482300452636
:10009000004128003E2A003B2D0038300035320058
:1000A0003235003038002D3B002A3E002841002622
:1000B0004500234800214B001F4F001D52001B56D6
:1000C00000195A00175E00156200146600126A00DB
:1000D000116E000F72000E77000D7B000B80000A7E
:1000E0008500098A00088F00079400069900059E84
:1000F0000005A30004A90003AE0003B40002B90088
:1001000002BF0001C50001CB0001D10001D70000F2
:10011000DE0000E40000EB0000F10000F80000FF4A
:100120000000F80000F10000EB0000E40000DE0138
:1001300000D70100D10100CB0100C50200BF0200C1
:10014000B90300B40300AE0400A90500A305009E96
:1001500006009907009408008F09008A0A00850BA1
:1001600000800D007B0E00770F007211006E1200F0
:100170006A14006615006217005E19005A1B0056CB
:100180001D00521F004F21004B2300482600452828
:1001900000412A003E2D003B30003832003535004A
:1001A000323800303B002D3E002A41002845002611
:1001B0004800234B00214F001F52001D56001B5AC0
:1001C00000195E00176200156600146A00126E00C6
:1001D0001172000F77000E7B000D80000B85000A66
:1001E0008A00098F00089400079900069E0005A365
:1001F0000005A90004AE0003B40003B90002BF006B
:1002000002C50001CB0001D10001D70001DE0000D2
:10021000E40000EB0000F10000F80000FF0000F82F
:100220000000F10000EB0000E40000DE0000D70158
:1002300000D10100CB0100C50100BF0200B90200DE
:10024000B40300AE0300A90400A305009E050099B5
:1002500006009407008F08008A0900850A00800BB9
:10026000007B0D00770E00720F006E11006A120005
:100270006614006215005E17005A1900561B0052E2
:100280001D004F1F004B2100482300452600412838
:10029000003E2A003B2D0038300035320032350058
:1002A0003038002D3B002A3E00284100264500231F
:1002B0004800214B001F4F001D52001B5600195AC9
:1002C00000175E00156200146600126A00116E00CD
:1002D0000F72000E77000D7B000B80000A8500096D
:1002E0008A00088F00079400069900059E0005A368
:1002F0000004A90003AE0003B40002B90002BF006D
:1003000001C50001CB0001D10001D70000DE0000D3
:10031000E40000EB0000F10000F8000011241FBE13
:10032000CFE5D2E0DEBFCDBF10E0A0E6B0E0E2EA6C
:10033000F5E002C005900D92A236B107D9F769D059
:100340002EC15ECE98E1440F661F881F28F0C49A24
:100350009A95C498C1F705C0C49A9A9500C0C498EC
:1003600091F70895FB01B591A591759168E1770F1B
:10037000AA1FBB1F28F0C49A6A95C498C1F705C08C
:10038000C49A6A9500C0C49891F72E173F0709F4E4
:10039000FA01019741F7089578E1220F441F661F83
:1003A00078F3C49A211DC4987A95B9F706C0C49A07
:1003B0000000211D7A95C49881F7019769F7089587
:1003C0001F920F920FB60F9211248F93B3990BC007
:1003D000809160008F5F8093600080916000853025
:1003E00010F0109260008F910F900FBE0F901F9031
:1003F000189587E187BB88E088BB85BB80E28BBF0F
:1004000080E888B98FE080BD85B7877E806185BF31
:100410000895EFDF42E050E060E670E080E090E0B9
:100420008DD080916000853018F081E0809360006D
:1004300080916100823010F01092600042E050E044
:1004400060E670E080E090E089D000E010E0E12C10
:10045000F12CC0E0D0E0DD24DA94C12C88E1B82E84
:10046000F8940FB6F894A89581B5886181BD11BC48
:100470000FBEA89542E050E060E670E080E090E0BA
:100480006DD080916100882399F0B801625E7F4F42
:100490002BE133E04EE150E082E590E063DF0D5F59
:1004A0001F4F0A3F82E0180770F100E010E02BC0F8
:1004B0002D2F4D2D6C2D82E590E06EDF8FEFE81A29
:1004C000F80A8FEFE816F10431F028F0CF5FE12C45
:1004D000F12CC63080F4C23089F030F4CC2359F0CE
:1004E000C13089F4DA940FC0C43061F048F0C530EF
:1004F00051F4D15008C0C394C0E005C0DF5F03C011
:10050000CA9401C0D3949091600093FD02C088E02A
:1005100001C088E29770892B0FB6F894A895B1BCFA
:100520000FBE81BD81B5806481BD789485B780623E
:1005300085BF889585B78F7D85BF92CFDC01CB01C4
:10054000FC01E199FECF06C0FFBBEEBBE09A3196FD
:100550000DB20D9241505040B8F70895DC01A40F40
:10056000B51F4150504040F0CB01840F951F2E9194
:1005700005D041505040D8F70895262FE199FECF7D
:100580009FBB8EBBE09A01970DB2021639F01CBAE0
:100590002DBB0FB6F894E29AE19A0FBE0895F89435
:0205A000FFCF8B
:0205A200010056
:00000001FF
